:020000040000fa
:080000000002040000000000f2
:020000040000fa
:10000800ca0200009a020000a0020000a602000036
:10001800ac020000ca020000ca020000ca020000c6
:10002800ca020000ca020000ca020000ca02000098
:10003800ca020000ca020000ca020000ca02000088
:10004800ca020000ca020000ca020000ca02000078
:10005800ca020000ca020000ca020000ca02000068
:10006800ca020000ca020000ca020000ca02000058
:10007800ca020000ca020000ca020000ca02000048
:10008800ca020000ca020000ca020000ca02000038
:10009800ca020000ca020000ca020000ca02000028
:1000a800ca020000ca020000ca020000ca02000018
:1000b800ca020000ca020000ca020000ca02000008
:1000c800ca020000ca020000ca020000ca020000f8
:1000d800ca020000ca020000ca020000ca020000e8
:1000e800ca020000ca020000ca020000ca020000d8
:1000f800ca020000ca020000ca020000ca020000c8
:10010800ca020000ca020000ca020000ca020000b7
:10011800ca020000ca020000ca020000ca020000a7
:10012800ca020000ca020000ca020000ca02000097
:10013800ca020000ca020000ca020000ca02000087
:10014800ca020000ca020000ca020000ca02000077
:10015800ca020000ca020000ca020000ca02000067
:10016800ca020000ca020000ca020000ca02000057
:10017800ca020000ca020000ca020000ca02000047
:10018800ca020000ca020000ca020000ca02000037
:10019800ca020000ca020000ca020000ca02000027
:1001a800ca020000ca020000ca020000ca02000017
:1001b800ca020000ca020000ca020000ca02000007
:1001c800ca020000ca020000ca020000ca020000f7
:1001d800ca020000ca020000ca020000ca020000e7
:1001e800ca020000ca020000ca020000ca020000d7
:0801f800ca020000ca02000067
:020000040000fa
:10020800ca020000b2020000b8020000be020000ec
:10021800c4020000ca020000ca020000ca020000ac
:10022800ca020000ca020000ca020000ca02000096
:10023800ca020000ca020000ca020000ca02000086
:10024800ca020000ca020000ca020000ca02000076
:10025800ca020000ca020000ca020000ca02000066
:10026800ca020000ca020000ca020000ca02000056
:10027800ca020000ca020000ca020000ca02000046
:10028800ca020000ca020000ca020000ca02000036
:10029800ca020000ca020000ca020000ca02000026
:1002a800ca020000ca020000ca020000ca02000016
:1002b800ca020000ca020000ca020000ca02000006
:1002c800ca020000ca020000ca020000ca020000f6
:1002d800ca020000ca020000ca020000ca020000e6
:1002e800ca020000ca020000ca020000ca020000d6
:1002f800ca020000ca020000ca020000ca020000c6
:10030800ca020000ca020000ca020000ca020000b5
:10031800ca020000ca020000ca020000ca020000a5
:10032800ca020000ca020000ca020000ca02000095
:10033800ca020000ca020000ca020000ca02000085
:10034800ca020000ca020000ca020000ca02000075
:10035800ca020000ca020000ca020000ca02000065
:10036800ca020000ca020000ca020000ca02000055
:10037800ca020000ca020000ca020000ca02000045
:10038800ca020000ca020000ca020000ca02000035
:10039800ca020000ca020000ca020000ca02000025
:1003a800ca020000ca020000ca020000ca02000015
:1003b800ca020000ca020000ca020000ca02000005
:1003c800ca020000ca020000ca020000ca020000f5
:1003d800ca020000ca020000ca020000ca020000e5
:1003e800ca020000ca020000ca020000ca020000d5
:0803f800ca020000ca02000065
:020000040000fa
:100400000f8020000e7f22000e01880000000000f7
:10041000000020000000e000020032000001200087
:10042000200288000c000700003520000100200099
:1004300011000700000020000000e0000200320070
:1004400000000200000000000003020000000000a5
:100450000040da000000fe004440a9000000200037
:100460000000e0000300320000002000a00188002e
:100470004440a80000000600910188008000780038
:100480000000eb0015003700e280400032a0b4000d
:100490009101ba00e280400032a0b4009102ba009b
:1004a000e280400032a0b4000002eb00472bde00e7
:1004b000f507b200602ce10004003a000059eb009f
:1004c0008301e900fdff3e00040037006128e100e0
:1004d000010032000082eb00040007001101ba00a5
:1004e0000200e000e8ff3a00000006003159ba00bf
:1004f0008301e9000c0032002159ba008301e900b0
:10050000080032000400e00003003a00e2804000ee
:1005100032a0b400f5ff370011d9ba008301e90019
:10052000faff3a008100e800e180400032a0b40008
:10053000000006000000fa008020a900ffff37003d
:100540000000fa008060a900ffff37000000fa00f9
:100550008040a900ffff37000000fa008080a9005a
:10056000ffff37000000fa008020a900ffff3700de
:100570000000fa008060a900ffff37000000fa00c9
:100580008040a900ffff37000000fa008080a9002a
:0c059000ffff37000000fa00ffff3700fb
:020000040000fa
:10059c000200fa00f4ff2700040f780000000000ae
:1005ac001e02780004f0a7000402ea000402ea002c
:1005bc004f22de00044278001e0fe900e04f52008b
:1005cc00f7ff3a000080fa00000006000000fa0075
:1005dc00efff07000002eb00141688000002eb008e
:1005ec00541688000002eb00941688000080fa0074
:1005fc00000006000000fa000002eb000416880060
:10060c000002eb00441688000002eb008416880000
:10061c00eeff07000404200094168800ebff07008f
:10062c000402200094168800e8ff07000410200044
:10063c0014168800e5ff070004202000141688001b
:10064c00e2ff07004400200054168800dfff07007b
:10065c008400200054168800dcff070004082000ea
:10066c0014168800d9ff07000440200014168800d7
:10067c00d6ff0700c6ff0700e6ff37000000fa00b0
:10068c000080fa00000006000000fa000080fa006a
:04069c000000060054
:020000040000fa
:0406a0000000000056
:020000040000fa
:020000040001f9
:0457fc00ff3f00006b
:00000001FF
